:020000040800F2
:1000000028070020B501000825230008711E0008FC
:1000100021230008710200081D24000800000000D0
:100020000000000000000000000000001124000893
:100030000D0A00080000000029230008152400080C
:10004000CF010008CF010008CF010008CF01000850
:10005000CF010008CF010008CF010008CF01000840
:10006000CF010008CF010008CF010008CF01000830
:10007000CF010008CF010008CF010008CF01000820
:10008000CF010008CF010008CF010008CF01000810
:10009000CF010008CF010008CF010008CF01000800
:1000A000CF010008CF010008CF010008CF010008F0
:1000B000CF010008CF010008CF010008CF010008E0
:1000C000CF010008CF010008CF010008CF010008D0
:1000D000CF010008CF010008CF010008CF010008C0
:1000E000CF010008CF010008CF01000800F002F89E
:1000F00000F050F814A696E8000CB244B344DA4578
:1001000001D100F047F8BAE80F000FA696E83000DA
:10011000A5EB040504EB0607AAEB0704A7F101070A
:100120004FEA15154FEA3414A4F10104AC4201D38F
:1001300000F030F813F0010F18BFFB1A43F0010371
:1001400000F001F8DBE71847042A0000242A000029
:10015000103A24BF78C878C1FAD8520724BF30C8F3
:1001600030C144BF04680C60704700007047000055
:100170000023002400250026103A28BF78C1FBD8B0
:10018000520728BF30C148BF0B6070471FB51FBD65
:1001900010B510BD00F031F81146FFF7F7FF02F07F
:1001A0003FF900F04FF803B4FFF7F2FF03BC00F093
:1001B00057F800000948804709480047FEE7FEE776
:1001C000FEE7FEE7FEE7FEE7FEE7FEE7FEE7FEE707
:1001D00004480549054A064B7047000019240008E9
:1001E000ED00000828010020280700202803002037
:1001F00028030020704770477047754600F02CF8C0
:10020000AE4605006946534620F00700854618B003
:1002100020B5FFF7DDFFBDE820404FF000064FF0AE
:1002200000074FF000084FF0000BAC46ACE8C009E7
:10023000ACE8C009ACE8C009ACE8C00921F007018E
:100240008D46704710B50446AFF300802046BDE8E8
:100250001040FFF7A8BF00000048704710000020C2
:1002600001491820ABBEFEE72600020070470000DF
:10027000FEE70000F0B583B040F27007C2F200075D
:10028000044638680E264FF0FF350DF10502D021E7
:1002900001238DF80560009500F096FF386801AAEB
:1002A000D0210123009500F08DFD9DF8040004F09D
:1002B000010100F0FE00014438688DF807100DF1CF
:1002C0000602D02102238DF80660009500F07CFF25
:1002D00038680DF10902D02101238DF809600095DD
:1002E00000F072FF386802AAD0210123009500F0C7
:1002F00069FD9DF808000DF10A0240F0040138681C
:100300008DF80B10D02102238DF80A60009500F0C3
:100310005BFF03B0F0BD0000F0B583B040F27007A2
:10032000C2F20007044638680E264FF0FF350DF183
:100330000502D02101238DF80560009500F044FFEF
:10034000386801AAD0210123009500F03BFD9DF8FB
:10035000040004F0010100F0FD0040EA41013868AA
:100360008DF807100DF10602D02102238DF80660EA
:10037000009500F029FF38680DF10902D021012312
:100380008DF80960009500F01FFF386802AAD0219F
:100390000123009500F016FD9DF808000DF10A02FA
:1003A00040F0040138688DF80B10D02102238DF83D
:1003B0000A60009500F008FF03B0F0BDB0B582B050
:1003C00040F27004C2F20004042120688DF8071086
:1003D0004FF0FF350DF10702D0210123009500F009
:1003E000F3FE20680DF10602D0210123009500F0F4
:1003F000E9FC9DF80600010901EB810100F00F0006
:1004000000EB4100C0B202B0B0BD0000B0B582B098
:1004100040F27004C2F20004022120688DF8071037
:100420004FF0FF350DF10702D0210123009500F0B8
:10043000CBFE20680DF10602D0210123009500F0CB
:10044000C1FC9DF80600010901EB810100F00F00DD
:1004500000EB4100C0B202B0B0BD0000B0B582B048
:1004600040F27004C2F20004012120688DF80710E8
:100470004FF0FF350DF10702D0210123009500F068
:10048000A3FE20680DF10602D0210123009500F0A3
:1004900099FC9DF80600010901EB810100F00F00B5
:1004A00000EB4100C0B202B0B0BD0000B0B582B0F8
:1004B00040F27004C2F20004052120688DF8071094
:1004C0004FF0FF350DF10702D0210123009500F018
:1004D0007BFE20680DF10602D0210123009500F07B
:1004E00071FC9DF80600C0F3021101EB810100F0E0
:1004F0000F0000EB410002B0B0BD0000B0B582B00B
:1005000040F27004C2F20004002120688DF8071048
:100510004FF0FF350DF10702D0210123009500F0C7
:1005200053FE20680DF10602D0210123009500F052
:1005300049FC9DF80600010901EB810100F00F0064
:1005400000EB4100C0B202B0B0BD0000B0B582B057
:1005500040F27004C2F20004122120688DF80710E6
:100560004FF0FF350DF10702D0210123009500F077
:100570002BFE20680DF10602D0210123009500F02A
:1005800021FC9DF8060019218009484302B0B0BD46
:10059000B0B582B040F27004C2F2000411212068AC
:1005A0008DF807104FF0FF350DF10702D021012320
:1005B000009500F009FE20680DF10602D02101230C
:1005C000009500F0FFFB9DF9060002B0B0BD0000F1
:1005D00070B582B040F27005C2F2000506212868AD
:1005E0008DF805104FF0FF340DF10502D0210123E5
:1005F000009400F0E9FD286801AAD02101230094AD
:1006000000F0E0FB9DF804000DF10702010901EB89
:10061000810100F00F0000EB4106052128688DF8EC
:100620000710D0210123009400F0CEFD28680DF1C1
:100630000602D0210123009400F0C4FB9DF90600BE
:100640004FF4FA610028F0B248BF40F63401084484
:1006500002B070BD70B584B040F27004C2F2000404
:1006600020600020FFF706FE0020FFF755FE2068FF
:100670000F264FF0FF350DF10502D02101238DF833
:100680000560009500F0A0FD206801AAD02101239B
:10069000009500F097FB9DF804000DF1060200F0B4
:1006A000FE0120688DF80710D02102238DF8066026
:1006B000009500F089FD20680DF10902D021012389
:1006C0008DF80960009500F07FFD206802AAD02116
:1006D0000123009500F076FB9DF808000DF10A0259
:1006E00000F0FD0120688DF80B10D02102238DF859
:1006F0000A60009500F068FD20680E260DF10D02DD
:10070000D02101238DF80D60009500F05DFD20687B
:1007100003AAD0210123009500F054FB9DF80C00A2
:100720000DF10E0240F0040120688DF80F10D02169
:1007300002238DF80E60009500F046FD04B070BDF8
:100740002DE9F04786B04FF0CD080E4600FB08F1CA
:10075000C90A154601EB8102A0EB420040F2700489
:1007600040EA01110420C2F200048DF80A0020685A
:1007700099468DF80B104FF0FF370DF10A02D0218A
:100780000223009700F020FD20684FF0050A0DF1CC
:100790000D02D02101238DF80DA0009700F014FD6B
:1007A000206803AAD0210123009700F00BFB06FB71
:1007B00008F1C90A9DF80C0001EB8102A6EB420288
:1007C00000F0800042EA0111014320688DF80F100B
:1007D0000DF10E02D02102238DF80EA0009700F03B
:1007E000F3FC05FB08F0C00A00EB8001A5EB41011A
:1007F00041EA001103208DF8100020688DF81110D7
:1008000004AAD0210223009700F0DEFC4FEA9900F1
:1008100041F27B414843450C20680DF11302D02181
:1008200001238DF813A0009700F0CEFC20680DF195
:100830001202D0210123009700F0C4FA9DF81200A3
:1008400005AA00F07F0040EAC51120688DF8151058
:10085000D02102238DF814A0009700F0B5FC64208D
:1008600005FB10900223C1B201FB08F1C90A01EB9C
:100870008102A0EB420040EA011106208DF816002B
:1008800020688DF817100DF11602D021009700F0A6
:100890009BFC06B0BDE8F0872DE9F04184B00D4621
:1008A00000F03F001A214143090A144601EB81027E
:1008B000A0EB420040F2700740EA01110220C2F2B0
:1008C00000078DF80A0038688DF80B104FF0FF38DC
:1008D0000DF10A02D0210223CDF8008000F074FC53
:1008E000CD2605FB06F0C00A00EB8001A5EB410117
:1008F00041EA001101208DF80C0038688DF80D10C8
:1009000003AAD0210223CDF8008000F05DFC04FB97
:1009100006F0C00A00EB8001A4EB410141EA00119E
:1009200000208DF80E0038688DF80F100DF10E02C2
:10093000D0210223CDF8008000F046FC04B0BDE8D1
:10094000F0810000F0B583B040F27007C2F20007FA
:10095000044638680E264FF0FF350DF10902D0210C
:1009600001238DF80960009500F02EFC386802AA7A
:10097000D0210123009500F025FA9DF8080004F02D
:10098000010100F0FB0040EA810138688DF80B108E
:100990000DF10A02D02102238DF80A60009500F0C3
:1009A00013FC03B0F0BD0000F0B583B040F2700757
:1009B000C2F20007044638680E264FF0FF350DF1ED
:1009C0000902D02101238DF80960009500F0FCFB9D
:1009D000386802AAD0210123009500F0F3F99DF8B0
:1009E000080004F0030100F0E70040EAC1013868A4
:1009F0008DF80B100DF10A02D02102238DF80A6048
:100A0000009500F0E1FB03B0F0BD0000704700006E
:100A1000B0B5044600F01EF9054640F20000C2F2EF
:100A200000000078611C18BF044400BF00F012F9F8
:100A3000401BA042FAD3B0BD2DE9F04F82B00E6842
:100A4000002E00F0FD8041F20042C4F201020423B6
:100A500040F2004E904208BF03234FF6FF7CC4F2E1
:100A6000010E009300240123C1F2100C4FF0000A84
:100A70004FF0000944E000BF012704F00C030F22EF
:100A80009A402BEA020207FA03F34FEA9A051A4347
:100A900046F825204E6840F20C45F202DEF80820A8
:100AA00054BF22EA080242EA0802C4F20105CEF865
:100AB00008202A68B30254BF22EA080242EA080268
:100AC0002A60B303DEF8042054BF22EA080242EA97
:100AD0000802F303CEF80420DEF800204FF00103F3
:100AE00054BF22EA080242EA0802CEF800200E684B
:100AF0000AF1010A36FA0AF204F1040400F0A080B7
:100B000003FA0AFB16EA0B08F1D04E68664511DCC1
:100B1000122E55D8DFE806F0340A44485454545491
:100B20005454545454545454544C5000D1F80C90D0
:100B300046E000BF4FF6FF72C1F2210296420FDC81
:100B40000022C1F2110296421AD00022C1F2120212
:100B5000964215D00022C1F22102964210D02FE019
:100B60000022C1F2220296420AD00022C1F23102D2
:100B7000964205D00022C1F23202964220D100BF37
:100B80008A684AB1012A14BFC0F814B0C0F810B086
:100B90004FF0080914E000BF4FF0040910E000BF57
:100BA000CA6802F108090BE04FF0000908E000BF35
:100BB000CA6802F1040903E0CA6802F10C0900BF27
:100BC00022460646B8F5807F24BF203A04363768AF
:100BD0000F25954027EA050509FA02F22A433260FB
:100BE000CA79D2067FF583AF41F21803C4F202033B
:100BF0001A68AEF57E7642F001021A601A6802F0B9
:100C000001020192019A2AF0030256F802B040F65E
:100C10000002C4F20102904210D040F60042C4F239
:100C2000010290423FF428AF41F20002C4F20102F7
:100C3000009F904208BF02271FE700BF00271CE764
:100C400002B0BDE8F08F0000002A08BF090401616E
:100C50007047000040F22410C2F2000000687047A4
:100C6000002804BF01207047F0B581B0044690F819
:100C70003D0028B9002084F83C00204600F092FB9B
:100C8000242084F83D002068016821F00101016002
:100C9000016841F400410160016821F400410160F4
:100CA00000F038FD636848F2A16CC0F2010C40F618
:100CB0000011C0F23D0163453CBF48F28041C0F2E3
:100CC0001E01884202D2012001B0F0BD4DF68361C1
:100CD000C4F21B31A0FB01122168970CD1F804E08B
:100CE0004FF496762EF03F0545EA92454D607743E6
:100CF00048F638160D6AC0F24106A7FB067625F0C5
:100D00003F07634538BF960C721C3A430A62CA69B2
:100D100048F2A0664CF6FF77C0F20106B34222EA21
:100D200007020BD801385B00B0FBF3F001306FF322
:100D30001F30042898BF04201BE000BFA7680138BB
:100D400057B119277B43B0FBF3F001306FF31F302D
:100D500070B100F5804007E003EB4303B0FBF3F014
:100D600001306FF31F3018B100F5004001E000BF03
:100D700001201043C8610868D4E9072320F0C000AF
:100D8000104318430860886848F2FF3204F10C07EA
:100D900090438CCF18431043A6698860C86820F040
:100DA000FF0038433043C860086840F00100086025
:100DB00000202021206484F83D10206384F83E0048
:100DC00001B0F0BD2DE9F04784B0044600201F4675
:100DD000164689460290FFF73DFF94F83D10202902
:100DE00024D10546206800BF816989071AD5FFF71D
:100DF00031FF411B20681A29F6D381698907F3D591
:100E000000202021206384F83D1084F83E00216CEE
:100E100041F02001216484F83C00022004B0BDE8C8
:100E2000F08700BF94F83C10012903D1022004B0E0
:100E3000BDE8F087012184F83C100168C90703D19F
:100E4000016841F0010101600168DDF8308021F4A2
:100E500000610160222184F83D10102184F83E10C9
:100E60000021216466626785618D0227C0F2010757
:100E70002185A7F10211E162E16A026811F5803F64
:100E800042F48062026018BF01293DD1016841F43B
:100E90008071016020464FF0011100224346009509
:100EA00001F046F850B120680068C00544BF4FF417
:100EB00000702064012004B0BDE8F0872069B0F51F
:100EC000804F27D149F00100C0B221684246086135
:100ED000204639462B4601F011F90028EAD1208D31
:100EE00002284BD001285FD0002840F073800020FA
:100EF0000390206841690391816903910399016816
:100F000041F40071016071E00829BFD0216B112903
:100F1000BCD0BFE7062000EAD916206806F1F00130
:100F20000161B91D204642462B4601F0E7F8002832
:100F3000C0D120685FFA89F10161204639464246F6
:100F40002B4601F0DBF80028B4D100200390206884
:100F50000022416943460391816903910399016825
:100F600041F48071016020464FF00111009500F0BE
:100F7000DFFF002897D146F0F100A6E7206801685E
:100F800041F400610160EFF3108072B6002003901D
:100F9000206841690391816903910399016821F4F3
:100FA0008061016062B621E02068016821F48061FF
:100FB0000160EFF3108072B6002003902068416951
:100FC0000391816903910399016841F40071016003
:100FD00062B60BE02068016841F480610160002185
:100FE000039141690391806903900398208D002843
:100FF00000F0CC8040F208094BF2895A0237C2F265
:101000000009C1F2F84A23260EE000BF10690870FB
:10101000606A218D01306062481E2085618D013932
:101020006185010400F0B28080B203280CD8022848
:101030002CD001284AD1204641462A4601F0CAF860
:10104000002800F09F8035E7204641462A4601F0FF
:10105000C1F800287FF42EAF2068616A006908702B
:10106000606A2268411C208D616201382085638D91
:10107000013B638553695B07D3D580B20328C5D193
:10108000106820F480601060C0E700BF2046394639
:1010900000224346009500F04BFF00287FF40AAF82
:1010A000EFF3108072B62068616A026842F4007241
:1010B000026000690870606A218D01306062481E1C
:1010C0002085608D0138608562B65BE02046394638
:1010D00000224346009500F02BFF00287FF4EAAE83
:1010E0002068016821F480610160EFF3108072B61E
:1010F0002068616A00690870606A218D01300139D9
:1011000060622185618D01396185D9F80010C908B7
:10111000A1FB0A12110A714302910299013902914D
:10112000029900293ED021684A6952071AD40299CF
:10113000013902910299A9B321684A69520711D471
:10114000029901390291029961B321684A695207F3
:1011500008D4029901390291029919B321684A69A8
:101160005207DAD50A6842F400720A600969017010
:10117000606A218D01306062481E2085608D0138D3
:10118000608562B62068616A006940E7202084F8C3
:101190003D00002084F83E0084F83C0004B0BDE827
:1011A000F08700BF00202021206384F83D1084F8E0
:1011B0003E00216C41F02001216462B684F83C00BD
:1011C000012004B0BDE8F0872DE9F04383B01E464E
:1011D000174689460446FFF73DFD94F83D10202947
:1011E00024D10546206800BF816989071AD5FFF719
:1011F00031FD411B20681A29F6D381698907F3D58F
:1012000000202021206384F83D1084F83E00216CEA
:1012100041F02001216484F83C00022003B0BDE8C5
:10122000F08300BF94F83C10012903D1022003B0E1
:10123000BDE8F083012184F83C100168C90703D19F
:10124000016841F001010160016840F2020821F4E7
:1012500000610160212184F83D10102184F83E10C6
:101260000021216467626685618DC0F201082185D5
:10127000A8F10211E162E16A0A9E11F5803F18BFF0
:1012800001291DD1016841F48071016020464FF0B1
:10129000011100223346009500F04AFE50B120684B
:1012A0000068C00544BF4FF400702064012003B003
:1012B000BDE8F0832069B0F5804F07D1FE2015E02E
:1012C0000829DFD0216B1229DCD0DFE7062000EAF5
:1012D000D9102168F030086108F106012046324635
:1012E0002B4600F00BFF0028E0D1FF20216800EA28
:1012F000090008612046414632462B4600F0FEFEBA
:101300000028D3D1002002902068416902918069B1
:101310000290029806E000BF204631462A4600F0BF
:10132000A9FD18BB208D68B3204631462A4600F03F
:1013300099FFD8B9606A2168024612F8013B0B6137
:101340006262628D013A6285228D531E23854F6948
:101350007F07E1D51B04DFD0437802300B61606268
:10136000608D01386085901E2085D5E7206C0428AB
:101370009CD12068016841F400710160012003B034
:10138000BDE8F0832068016841F40071016020200D
:1013900084F83D00002084F83E0084F83C0003B04F
:1013A000BDE8F08310B586B045F200410068C4F294
:1013B000000100228842049202D006B010BD00BF96
:1013C00041F21804C4F20204206840F008002060D2
:1013D000206800F0080001900198C02002901220BF
:1013E00003900320059001F5384002A9FFF724FB84
:1013F000606840F400106060606800F400100190C4
:10140000019806B010BD000040F2000040F2241127
:10141000C2F20000C2F2000100780A6810440860BD
:101420007047000080B542F20000C4F2020001687B
:1014300041F010010160032000F07AF80F2000F065
:1014400005F800F027F8002080BD000070B540F2DC
:101450000006C2F2000640F208013278C2F2000132
:101460004FF47A730968B3FBF2F20446B1FBF2F170
:10147000084600F0E7FC0F2C4FF0010508D838B9FA
:101480004FF0FF3021460022002500F025F874605F
:10149000284670BD82B041F21800C4F20200016813
:1014A000022241F001010160016801F00101019196
:1014B0000199416841F080514160406800F08050DE
:1014C000009000980420C4F20100016862F31A61E0
:1014D000016002B07047000010B54EF60C5CCEF211
:1014E000000CDCF80030C3F3022E8EF00704042C4D
:1014F00028BF0424BEF103034FF0FF3E0EFA04F4AC
:1015000038BF0023A14399400EFA03F39A431143D5
:1015100000F00F0200F160430901043A03F564434F
:101520006244002848BF02F10C03197010BD00008E
:101530004EF60C51CEF200010A684FF6FF031A4036
:1015400060F30A2242F0806040F0FD70086070474E
:10155000002804BF012070472DE9F04381B042F21A
:101560000008C4F202080446D8F800000D4600F056
:10157000070088420CD2D8F8000020F0070028436A
:10158000C8F80000D8F8000000F00700A8426CD1AD
:10159000206841F204098107C4F2020917D5410706
:1015A00005D5D9F8001041F4E061C9F80010010731
:1015B00005D5D9F8001041F46051C9F80010D9F8E8
:1015C0000010A26821F0F0011143C9F80010C00713
:1015D00042D1D8F8000000F00700A8420CD9D8F892
:1015E000000020F007002843C8F80000D8F80000E9
:1015F00000F00700A84238D12068410707D5D9F884
:101600000010E26821F4E0611143C9F800100007FE
:1016100008D5D9F80000216920F4605040EAC100E3
:10162000C9F80000D9F8002002F00C00082841F2A7
:101630000020C0F27A0051D142F63A33C2F383411E
:10164000C0F60003595CD2033CD440F60010C0F24F
:101650003D00484342E000BF606802280AD00128EC
:101660002AD159F8041C890308D4012001B0BDE82F
:10167000F08300BF59F8041C8901F6D5D9F8001091
:1016800021F003010843C9F80000FFF7E3FA06461A
:1016900041F28837D9F80000616800F00C00B0EB27
:1016A000810F96D0FFF7D6FA801BB842F2D90320FB
:1016B00001B0BDE8F08300BF59F8041C8907D4D5F8
:1016C000DCE700BFD9F8002042F63833C2F34042CD
:1016D000C0F600039A5C4843B0FBF2F0D9F8001062
:1016E00042F62032C1F30311C0F60002515C40F211
:1016F000080220FA01F140F20400C2F20000006882
:10170000C2F200021160FFF7A1FE002001B0BDE8A7
:10171000F083000040F2080041F20401C2F2000030
:10172000C4F202010068096842F63032C1F30221B6
:10173000C0F60002515CC84070470000002804BF9A
:10174000012070472DE9F04182B00446007841F253
:101750000006C007C4F202060CD0706800F00C004E
:10176000042840F081803068800303D56068002839
:1017700000F04E81207880071BD5706810F00C0FA8
:1017800009D0706800F00C00082840F08B80706869
:10179000C00300F187803068800703D520690128E5
:1017A00040F036813068616920F0F80040EAC100FD
:1017B00030602078000713D4207840072CD4E569E6
:1017C000002D00F02081706800F00C00082840F027
:1017D000AF80012D40F00C81012002B0BDE8F08106
:1017E000A069002800F08C800020C4F24220012172
:1017F000C0F88014FFF72EFA054600BF706A800714
:1018000000F1BA80FFF726FA401B0228F6D9032020
:1018100002B0BDE8F08100BFF0695FEAC00808D4FB
:10182000F06940F08050F061F06900F08050009065
:10183000009847F20007C4F200073868C0054DD48D
:10184000386840F480703860FFF704FA054600BF3E
:101850003868C00542D4FFF7FDF9401B6428F7D96A
:10186000032002B0BDE8F081706800F00C00082889
:1018700003D17068C0033FF576AF6068002800F0C0
:101880000981B0F5A02F00F01D81B0F5803F00F078
:101890001D81306820F480303060306820F4802072
:1018A00017E100BF2069002840F20000C4F2422086
:1018B00000F08C8001210160FFF7CCF9054600BFE4
:1018C000306880073FF56EAFFFF7C4F9401B022870
:1018D000F6D9032002B0BDE8F08100BFE06800281F
:1018E00000F09A80052800F0B180012800F0B28055
:1018F000306A20F001003062306A20F00400ACE071
:101900000020C4F242200021C0F88014FFF7A2F9A1
:10191000054600BF706A80077FF54EAFFFF79AF962
:10192000401B0228F6D9032002B0BDE8F08100BFB9
:101930000027C4F2422700203866FFF78BF9022DFA
:1019400005460DD13068800140F1D680FFF782F95D
:10195000401B02284FF00300F4D902B0BDE8F0812B
:10196000306880014FD5FFF775F9401B02284FF012
:101970000300F5D9F1E700BF40F20800C2F2000011
:10198000006844F6D351C1F26201A0FB0101480A8C
:10199000019000BF00BF0198411E002801913FF453
:1019A0000BAF00BF0198411E002801913FF404AF26
:1019B00000BF0198411E002801913FF4FDAE00BF19
:1019C0000198411E00280191E4D1F5E60021016053
:1019D000FFF740F9054600BF306880077FF5E9AEA4
:1019E000FFF738F9401B02284FF00300F4D9B4E7A1
:1019F0007068216A00F480328A4209D1616A00F479
:101A00007010884204D1002002B0BDE8F08100BF10
:101A1000012002B0BDE8F081306A20F001003062A0
:101A2000306A20F004003062FFF714F9054641F2F5
:101A3000883700BF306A800722D5FFF70BF9401BBB
:101A4000B8424FF00300F5D987E700BF306A40F095
:101A500004003062306A40F001003062FFF7FAF8AB
:101A6000054641F2883700BF306A800708D4FFF787
:101A7000F1F8401BB842F7D9032002B0BDE8F0816D
:101A8000B8F1000F3FF59BAEF06920F08050F06197
:101A900095E600BF306820F480303060306820F474
:101AA00080203060FFF7D6F8054600BF306880031D
:101AB0007FF560AEFFF7CEF8401B64284FF00300BF
:101AC000F4D94AE7306840F480203060306840F450
:101AD00080303060FFF7BEF8054600BF30688003F5
:101AE0003FF548AEFFF7B6F8401B6428F6D903204F
:101AF00002B0BDE8F08100BF206AB0F5803F05D19B
:101B00007168A26821F40031114371607168626AE2
:101B100021F4741111430843706001203866FFF707
:101B200099F80446306880013FF56DAFFFF792F8F1
:101B3000001B02284FF00300F4D90EE770B538B14E
:101B40000446406A30B10020206104F1140007E02F
:101B5000012070BD6068B0F5827F03D004F11C00E5
:101B6000002101600026A66294F8510020B92046A9
:101B700084F8506000F038F8022084F8510094E8AE
:101B8000071001F48271036802F4044223F0400359
:101B90000360236911440CF40062114403F0020253
:101BA0006369114403F00102A369E569114403F478
:101BB0000072114405F03802256A114405F08002D4
:101BC000A56A114305F4005211430160042101EAA2
:101BD00013414160C16921F40061C1610120666562
:101BE00084F85100304670BD80B586B0014640F69D
:101BF0000000C4F20100096800F520530022994258
:101C0000049201D006B080BD41F21801C4F2020175
:101C10000A6842F480520A600A6802F48052019213
:101C2000019A0A6842F004020A60096801F004019E
:101C300001910199A02102910221039103210591B3
:101C400002A9FEF7F9FE06B080BD00002DE9F041C3
:101C500082B0044690F85000012803D1022002B05F
:101C6000BDE8F08101201D4616460F4684F850005D
:101C7000FEF7F0FF94F8511001290DD18046002F96
:101C80004FF0010018BF002E0ED1002184F8501033
:101C900002B0BDE8F08100BF0220002184F850109E
:101CA00002B0BDE8F08100BF0320002184F851009C
:101CB00061652763A686E686A163A187E187A068A0
:101CC0002164B0F5004F2068616407D1016821F0FC
:101CD00040010160016841F48041016001684906EA
:101CE00003D4016841F0400101606168731EE2683D
:101CF000B1FA81F1B3FA83F349095B09B2F5006FD8
:101D000041EA03013AD131B137F8021BC1602763C0
:101D1000E08E0138E086E08E002869D0681C0CD186
:101D20001BE000BF216B31F8022BC2602163E08E03
:101D30000138E086E08E00285AD020688168890743
:101D4000F0D4FEF787FFA0EB0800A842F2D338E0FA
:101D5000FEF780FFE08E00284AD02068816889075E
:101D6000F6D5216B31F8022BC2602163E08E013879
:101D7000E086E08E0028F0D13AE000BF39B1397832
:101D80000173206B01302063E08E0138E086E08E25
:101D900070B3681C0BD11BE0216B09780173206BB9
:101DA00001302063E08E0138E086E08E00B32068C9
:101DB00081688907F0D4FEF74DFFA0EB0800A84228
:101DC000F3D3032035E000BFFEF744FFE08E78B187
:101DD000206881688907F7D5216B09780173206B2A
:101DE00001302063E08E0138E086E08E0028EFD1DC
:101DF000204680212A46434600F098FA28B1606DBB
:101E000040F02000606520206065A06838B900209F
:101E100001902068C1680191806801900198606D0F
:101E200030B10120002184F8501002B0BDE8F081EB
:101E30000020012184F85110002184F8501002B0D4
:101E4000BDE8F081411E0020B0EB116F1CBF0120E6
:101E500070474EF21002CEF2000251604EF623514E
:101E6000CEF20001F0230B700721906011607047E3
:101E7000FEE7000070B50368044653F8140F4007EE
:101E800011D40E46481C29D086BB00BF18684005F7
:101E900027D4FEF7DFFE236853F8140F400737D529
:101EA00018684007F2D5002070BD00BF18684007D1
:101EB000F9D41868400514D418684007F3D418689A
:101EC00040050ED418684007EDD41868400508D4C2
:101ED000186840074FF0000048BF70BD1868400503
:101EE000E4D56FF480601860042012E0154603E02A
:101EF00053F8140F4007D6D418684005F1D4FEF704
:101F0000A9FE401B2368B042F2D958694007EFD4BC
:101F1000202000212022216384F83D2084F83E10F7
:101F2000226C10432064012084F83C1070BD000036
:101F30002DE9F041054600681E46144601F47F0273
:101F400001338FB242D0DDF81880B2F5803F40F007
:101F5000878040693840C01BB0FA80F04009A04239
:101F600040F0C8804EB924E040693840C01BB0FA48
:101F700080F04009A04240F0BD80FEF76BFEA0EB70
:101F800008012868B142EFD941693940C91BB1FA4B
:101F900081F14909A142E7D19BE000BF4069384087
:101FA000C01BB0FA80F04009A0424FF0000040F0A2
:101FB000A280FEF74FFE286841693940C91BB1FA7B
:101FC00081F14909A142E9D183E000BFB2F5803F28
:101FD00024D100BF41693940C91BB1FA81F14909D7
:101FE000A14240F0878041693940C91BB1FA81F1B3
:101FF0004909A14240F07E8041693940C91BB1FACC
:1020000081F14909A14275D141693940C91BB1FA31
:1020100081F14909A142DDD06CE000BF81693940FE
:10202000C91BB1FA81F14909A14263D181693940E3
:10203000C91BB1FA81F14909A1425BD181693940DB
:10204000C91BB1FA81F14909A14253D181693940D3
:10205000C91BB1FA81F14909A142DFD04AE000BFB2
:1020600080693840C01BB0FA80F04009A04241D1DD
:1020700046B923E080693840C01BB0FA80F04009BF
:10208000A04237D1FEF7E6FDA0EB08012868B14277
:10209000F0D981693940C91BB1FA81F14909A142DE
:1020A000E8D116E080693840C01BB0FA80F04009E2
:1020B000A0424FF0000018BFBDE8F081FEF7CAFD56
:1020C000286881693940C91BB1FA81F14909A142E7
:1020D000E8D100202021286385F83D1085F83E00D6
:1020E000296C41F02001296485F83C000120BDE8FD
:1020F000F08100BF0020BDE8F0810000F0B581B0A4
:10210000044600681D4643698FB203EA0701B942DD
:1021100002D1002001B0F0BD4169164601323FD026
:1021200049053FD4CEB100BFFEF794FD411B2068A6
:10213000B14203D941693940B94215D141693940A9
:10214000B942E6D041694905EED52BE041693940F5
:10215000B942DED04169490524D4FEF77BFD2068F1
:1021600041693940B942F1D0202023E0416939402A
:10217000B942CED04169490514D441693940B942C8
:10218000C7D0416949050DD441693940B942C0D031
:102190004169490506D441693940B942B9D041691C
:1021A0004905E3D5016841F4007101606FF4806175
:1021B0004161042000212022216384F83D2084F81D
:1021C0003E10226C1043206484F83C10012001B0C2
:1021D000F0BD000070B504460068154650F8143F85
:1021E0005A063DD40E4629B926E000BF50F8141F08
:1021F000490635D40168C90621D4FEF72BFD411BE1
:102200002068B142F2D941694906EFD4002020216B
:10221000206384F83D1084F83E00206C40F02000DC
:1022200018E000BFFEF716FD206850F8141F49069D
:10223000ECD50168490613D40168C906F2D56FF0E0
:102240001001016000202021206384F83D1084F8F3
:102250003E00206C2064002084F83C00012070BD0A
:10226000002070BD70B50368044653F8140F0006D3
:1022700011D40E46481C29D086BB00BF1868400503
:1022800027D4FEF7E7FC236853F8140F000637D570
:1022900018680006F2D5002070BD00BF186800065F
:1022A000F9D41868400514D418680006F3D41868E7
:1022B00040050ED418680006EDD41868400508D40F
:1022C000186800064FF0000048BF70BD1868400550
:1022D000E4D56FF480601860042012E0154603E036
:1022E00053F8140F0006D6D418684005F1D4FEF751
:1022F000B1FC401B2368B042F2D958690006EFD404
:10230000202000212022216384F83D2084F83E1003
:10231000226C10432064012084F83C1070BD000042
:10232000FEE70000FEE70000704700002DE9F041E5
:1023300082B01E4690460D460446FEF78BFC301ACE
:1023400000EB0807FEF786FC40F20801C2F200012C
:102350000968C1F3CB317943019121688A682A4029
:10236000AA4227D1064618F101001FD0FEF772FCE1
:10237000801BB84222D2019801990028A1F10101E5
:1023800001912168896808BF074601EA0500A84253
:10239000ECD00FE088682840A8420BD1886828401C
:1023A000A84207D188682840A84203D188682840FD
:1023B000A842EFD0002002B0BDE8F081D4E90001CE
:1023C0004268B1F5827F22F0E00242600AD1A16842
:1023D000B1F5004F02D0B1F5806F03D1016821F053
:1023E00040010160A16AB1F5005F07D1016821F4E5
:1023F00000510160016841F400510160012084F83E
:102400005100002084F85000032002B0BDE8F081A4
:1024100070470000FEF7F8BF70470000FEE70000BD
:1024200090B0FEF7FFFF00240120CDE90B44CDE979
:1024300009440A9010200B904FF4002002250F90C1
:1024400006A8CDE907440695CDE90D54FFF776F9C6
:1024500020B1EFF3108072B6FEE700BF0F20CDE988
:10246000010501A80021CDE903440594FFF770F8A8
:1024700020B1EFF3108072B6FEE700BF41F2180002
:10248000C4F20200016840F6004441F020010160FE
:102490000168C4F2010401F0200106910699016867
:1024A000002241F0040101600168012601F00401ED
:1024B000069106990168002541F008010160006855
:1024C000012100F00800069006982046FEF7BCFBAC
:1024D0000220099006A92046CDE906660895FEF778
:1024E000ABFA40F27800A4F53841C2F2000048F29D
:1024F000A0624FF48043C0F2010280E82600C0E9E8
:102500000353C0E90555C0E90755FEF7A9FB28B1FB
:10251000EFF3108072B600BFFEE700BF40F2CC00C0
:1025200004F51051C2F200004FF482724FF40073B0
:1025300080E826000A21C0E90355C0E90553C561BA
:10254000C0E90855C0E90A51FFF7F8FA20B1EFF3E6
:10255000108072B6FEE700BF072000F09FF900F080
:102560006BF940F27800C2F20000FEF773F8EFF367
:10257000108072B60020FEF7E5F90020FEF714FA8D
:102580000F2025210022FEF787F91C2007210822B1
:102590004FF4FD63FEF7D4F862B600BF00F04AF8CE
:1025A000FDF7D4FF01460520022200F0EBF9FDF70C
:1025B000EFFF01460820022200F0E4F94FF4FA6030
:1025C000FEF726FA00F036F8FDF748FF0146052031
:1025D000022200F0D7F9FDF719FF01460820022278
:1025E00000F0D0F9FDF78AFF01460220022200F038
:1025F000C9F94FF4FA60FEF70BFA00F01BF8FDF78B
:1026000055FF01460520022200F0BCF9FDF7E0FF6E
:1026100001460820022200F0B5F9FDF7CFFE014681
:102620000220022200F0AEF94FF4FA60FEF7F0F952
:10263000B4E700002DE9F04182B040F27400C2F22C
:102640000000067840F600440120C4F20104002E88
:1026500018BF0F268DF807002046012100228DF8B3
:102660000660FEF7F1FA40F2CC05C2F200050DF16A
:1026700007082846414601224FF0FF33FFF7E6FAEC
:102680000DF106072846394601224FF0FF33FFF7C8
:10269000DDFA204601210122FEF7D6FA02208DF84C
:1026A00007002046012100228DF80660FEF7CCFAD3
:1026B0002846414601224FF0FF33FFF7C7FA28466C
:1026C000394601224FF0FF33FFF7C0FA20460121BF
:1026D0000122FEF7B9FA03208DF8070020460121F8
:1026E00000228DF80660FEF7AFFA28464146012227
:1026F0004FF0FF33FFF7AAFA2846394601224FF080
:10270000FF33FFF7A3FA204601210122FEF79CFACE
:1027100004208DF807002046012100228DF8066074
:10272000FEF792FA2846414601224FF0FF33FFF7A9
:102730008DFA2846394601224FF0FF33FFF786FA1B
:10274000204601210122FEF77FFA05208DF80700BF
:102750002046012100228DF80660FEF775FA284612
:10276000414601224FF0FF33FFF770FA2846394601
:1027700001224FF0FF33FFF769FA204601210122C1
:10278000FEF762FA06208DF807002046012100229C
:102790008DF80660FEF758FA2846414601224FF0B0
:1027A000FF33FFF753FA2846394601224FF0FF3333
:1027B000FFF74CFA204601210122FEF745FA0720D7
:1027C0008DF807002046012100228DF80660FEF7F3
:1027D0003BFA2846414601224FF0FF33FFF736FA15
:1027E0002846394601224FF0FF33FFF72FFA2046E3
:1027F00001210122FEF728FA08208DF80700204663
:10280000012100228DF80660FEF71EFA2846414697
:1028100001224FF0FF33FFF719FA2846394601220B
:102820004FF0FF33FFF712FA204601210122FEF795
:102830000BFA02B0BDE8F081B0B582B040F274008E
:10284000C2F2000001210170092040F600448DF819
:102850000700FF20C4F201048DF806002046002284
:10286000FEF7F2F940F2CC05C2F200050DF10701C6
:10287000284601224FF0FF33FFF7E8F90DF106017A
:10288000284601224FF0FF33FFF7E0F920460121EF
:102890000122FEF7D9F902B0B0BD000070B582B0D8
:1028A000054640F600440C20C4F201048DF80300F4
:1028B00001208DF80200204601210022FEF7C4F914
:1028C00040F2CC06C2F200060DF1030130460122AF
:1028D0004FF0FF33FFF7BAF90DF102013046012244
:1028E0004FF0FF33FFF7B2F9204601210122FEF736
:1028F000ABF90B208DF8050007208DF80400204669
:1029000001210022FEF7A0F90DF105013046012258
:102910004FF0FF33FFF79AF901A9304601224FF03B
:10292000FF33FFF793F9204601210122FEF78CF9CE
:102930000F2D22D80A208DF8070020460121002201
:102940008DF80650FEF780F940F2CC05C2F2000582
:102950000DF10701284601224FF0FF33FFF776F90A
:102960000DF10601284601224FF0FF33FFF76EF903
:10297000204601210122FEF767F9FFF75BFE02B056
:1029800070BD00002DE9F04F83B0044640F60048CA
:102990000920C4F201088DF80700FF20154689467A
:1029A0008DF80600404601210022FEF74DF940F265
:1029B000CC06C2F200060DF10701304601224FF0AD
:1029C000FF33FFF743F90DF10601304601224FF0C6
:1029D000FF33FFF73BF9404601210122FEF734F9AE
:1029E000002D6ED0691E080608D0A81EC0B20328AC
:1029F00001F0030004D20A21A8B91EE001251EE05F
:102A000001F0FC010022012542F210730432D6B21B
:102A10002F468E4203FB05F5F8D148F2A061C0F2C3
:102A20000101794348B1012806D0642301EB8102FA
:102A30005943022808BF51000D46002D41D04CF6E5
:102A4000CD4A40F2CC07CCF6CC4AC2F200070DF1D9
:102A5000090B02AE2CE000BFB9FBF5F08DF8094080
:102A6000A0FB0A12D10801EB8101A0EB41008DF817
:102A70000800404601210022FEF7E6F83846594694
:102A800001224FF0FF33FFF7E1F8384631460122CB
:102A90004FF0FF33FFF7DAF8404601210122FEF73D
:102AA000D3F8013CA5FB0A01092D4FEAD10508D94D
:102AB0002006D1D10024A5FB0A01092D4FEAD1053A
:102AC000F6D840F27400C2F200000078092100F04C
:102AD000010040428DF80B108DF80A00404601219C
:102AE0000022FEF7B1F840F2CC05C2F200050DF16C
:102AF0000B01284601224FF0FF33FFF7A7F80DF135
:102B00000A01284601224FF0FF33FFF79FF84046A5
:102B100001210122FEF798F8E0B203B0BDE8F08F82
:102B2000000000000000000001020304060708097D
:102B3000000000000102030401020203040506076D
:102B400008090A0B0C0D0E0F10100000702B000866
:102B5000000000201000000050010008802B000839
:102B6000100000201807000070010008000000009D
:102B700001000000100000000024F400000000002C
:04000005080000ED02
:00000001FF
