:020000040800F2
:1000000028070020B501000801110008F9100008B8
:10001000FD10000871020008F9110008000000003E
:10002000000000000000000000000000ED110008CA
:10003000750200080000000005110008F111000819
:10004000CF010008CF010008CF010008CF01000850
:10005000CF010008CF010008CF010008CF01000840
:10006000CF010008CF010008CF010008CF01000830
:10007000CF010008CF010008CF010008CF01000820
:10008000CF010008CF010008CF010008CF01000810
:10009000CF010008CF010008CF010008CF01000800
:1000A000CF010008CF010008CF010008CF010008F0
:1000B000CF010008CF010008CF010008CF010008E0
:1000C000CF010008CF010008CF010008CF010008D0
:1000D000CF010008CF010008CF010008CF010008C0
:1000E000CF010008CF010008CF01000800F002F89E
:1000F00000F050F814A696E8000CB244B344DA4578
:1001000001D100F047F8BAE80F000FA696E83000DA
:10011000A5EB040504EB0607AAEB0704A7F101070A
:100120004FEA15154FEA3414A4F10104AC4201D38F
:1001300000F030F813F0010F18BFFB1A43F0010371
:1001400000F001F8DBE7184780200000A020000045
:10015000103A24BF78C878C1FAD8520724BF30C8F3
:1001600030C144BF04680C60704700007047000055
:100170000023002400250026103A28BF78C1FBD8B0
:10018000520728BF30C148BF0B6070471FB51FBD65
:1001900010B510BD00F031F81146FFF7F7FF01F080
:1001A0002DF800F04FF803B4FFF7F2FF03BC00F0A6
:1001B00057F800000948804709480047FEE7FEE776
:1001C000FEE7FEE7FEE7FEE7FEE7FEE7FEE7FEE707
:1001D00004480549054A064B70470000F511000820
:1001E000ED00000828010020280700202803002037
:1001F00028030020704770477047754600F02CF8C0
:10020000AE4605006946534620F00700854618B003
:1002100020B5FFF7DDFFBDE820404FF000064FF0AE
:1002200000074FF000084FF0000BAC46ACE8C009E7
:10023000ACE8C009ACE8C009ACE8C00921F007018E
:100240008D46704710B50446AFF300802046BDE8E8
:100250001040FFF7A8BF00000048704710000020C2
:1002600001491820ABBEFEE72600020070470000DF
:10027000FEE7000070470000B0B5044600F01EF92C
:10028000054640F20000C2F200000078611C18BF71
:10029000044400BF00F012F9401BA042FAD3B0BDE5
:1002A0002DE9F04F82B00E68002E00F0FD8041F283
:1002B0000042C4F20102042340F2004E904208BF03
:1002C00003234FF6FF7CC4F2010E009300240123A8
:1002D000C1F2100C4FF0000A4FF0000944E000BFDB
:1002E000012704F00C030F229A402BEA020207FABE
:1002F00003F34FEA9A051A4346F825204E6840F268
:100300000C45F202DEF8082054BF22EA080242EA55
:100310000802C4F20105CEF808202A68B30254BFCF
:1003200022EA080242EA08022A60B303DEF8042047
:1003300054BF22EA080242EA0802F303CEF804207E
:10034000DEF800204FF0010354BF22EA080242EA1F
:100350000802CEF800200E680AF1010A36FA0AF205
:1003600004F1040400F0A08003FA0AFB16EA0B086B
:10037000F1D04E68664511DC122E55D8DFE806F044
:10038000340A4448545454545454545454545454B3
:10039000544C5000D1F80C9046E000BF4FF6FF726D
:1003A000C1F2210296420FDC0022C1F211029642F4
:1003B0001AD00022C1F21202964215D00022C1F2D8
:1003C0002102964210D02FE00022C1F22202964272
:1003D0000AD00022C1F23102964205D00022C1F2B9
:1003E0003202964220D100BF8A684AB1012A14BF66
:1003F000C0F814B0C0F810B04FF0080914E000BF06
:100400004FF0040910E000BFCA6802F108090BE0D0
:100410004FF0000908E000BFCA6802F1040903E0D8
:10042000CA6802F10C0900BF22460646B8F5807F73
:1004300024BF203A043637680F25954027EA050582
:1004400009FA02F22A433260CA79D2067FF583AFF5
:1004500041F21803C4F202031A68AEF57E7642F048
:1004600001021A601A6802F001020192019A2AF050
:10047000030256F802B040F60002C4F201029042B4
:1004800010D040F60042C4F2010290423FF428AF7F
:1004900041F20002C4F20102009F904208BF02270D
:1004A0001FE700BF00271CE702B0BDE8F08F000087
:1004B000002A08BF090401617047000040F22010C3
:1004C000C2F2000000687047002804BF0120704796
:1004D000F0B581B0044690F83D0028B9002084F8BA
:1004E0003C00204600F0A2F8242084F83D0020685B
:1004F000016821F001010160016841F400410160DF
:10050000016821F40041016000F048FA636848F294
:10051000A16CC0F2010C40F60011C0F23D01634530
:100520003CBF48F28041C0F21E01884202D2012045
:1005300001B0F0BD4DF68361C4F21B31A0FB011286
:100540002168970CD1F804E04FF496762EF03F0521
:1005500045EA92454D60774348F638160D6AC0F279
:100560004106A7FB067625F03F07634538BF960C8A
:10057000721C3A430A62CA6948F2A0664CF6FF77D9
:10058000C0F20106B34222EA07020BD801385B0031
:10059000B0FBF3F001306FF31F30042898BF042044
:1005A0001BE000BFA768013857B119277B43B0FB98
:1005B000F3F001306FF31F3070B100F5804007E0B9
:1005C00003EB4303B0FBF3F001306FF31F3018B1BE
:1005D00000F5004001E000BF01201043C861086839
:1005E000D4E9072320F0C00010431843086088684E
:1005F00048F2FF3204F10C0790438CCF18431043AC
:10060000A6698860C86820F0FF0038433043C8609E
:10061000086840F00100086000202021206484F870
:100620003D10206384F83E0001B0F0BD10B586B0E7
:1006300045F200410068C4F20001002288420492A1
:1006400002D006B010BD00BF41F21804C4F202048B
:10065000206840F008002060206800F00800019049
:100660000198C0200290122003900320059001F50C
:10067000384002A9FFF714FE606840F40010606083
:10068000606800F400100190019806B010BD0000F1
:1006900040F2000040F22011C2F20000C2F200015C
:1006A00000780A68104408607047000080B542F284
:1006B0000000C4F20200016841F010010160032053
:1006C00000F07AF80F2000F005F800F027F800207D
:1006D00080BD000070B540F20006C2F2000640F294
:1006E00008013278C2F200014FF47A730968B3FB53
:1006F000F2F20446B1FBF2F1084600F0E7FC0F2CE1
:100700004FF0010508D838B94FF0FF3021460022DC
:10071000002500F025F87460284670BD82B041F2D3
:100720001800C4F202000168022241F001010160D8
:10073000016801F0010101910199416841F0805186
:100740004160406800F08050009000980420C4F29E
:100750000100016862F31A61016002B07047000095
:1007600010B54EF60C5CCEF2000CDCF80030C3F392
:10077000022E8EF00704042C28BF0424BEF10303CC
:100780004FF0FF3E0EFA04F438BF0023A143994016
:100790000EFA03F39A43114300F00F0200F1604395
:1007A0000901043A03F564436244002848BF02F19A
:1007B0000C03197010BD00004EF60C51CEF2000172
:1007C0000A684FF6FF031A4060F30A2242F0806085
:1007D00040F0FD7008607047002804BF012070479A
:1007E0002DE9F04381B042F20008C4F20208044649
:1007F000D8F800000D4600F0070088420CD2D8F867
:10080000000020F007002843C8F80000D8F80000D6
:1008100000F00700A8426CD1206841F2040981076A
:10082000C4F2020917D5410705D5D9F8001041F4E3
:10083000E061C9F80010010705D5D9F8001041F4AE
:100840006051C9F80010D9F80010A26821F0F00139
:100850001143C9F80010C00742D1D8F8000000F0D9
:100860000700A8420CD9D8F8000020F00700284360
:10087000C8F80000D8F8000000F00700A84238D1FE
:100880002068410707D5D9F80010E26821F4E0613B
:100890001143C9F80010000708D5D9F800002169F4
:1008A00020F4605040EAC100C9F80000D9F80020E7
:1008B00002F00C00082841F20020C0F27A0051D169
:1008C00042F2A613C2F38341C0F60003595CD2037F
:1008D0003CD440F60010C0F23D00484342E000BF67
:1008E000606802280AD001282AD159F8041C89031B
:1008F00008D4012001B0BDE8F08300BF59F8041C02
:100900008901F6D5D9F8001021F003010843C9F890
:100910000000FFF7D3FD064641F28837D9F8000002
:10092000616800F00C00B0EB810F96D0FFF7C6FDB8
:10093000801BB842F2D9032001B0BDE8F08300BFAC
:1009400059F8041C8907D4D5DCE700BFD9F800208A
:1009500042F2A413C2F34042C0F600039A5C48433B
:10096000B0FBF2F0D9F8001042F28C12C1F303117F
:10097000C0F60002515C40F2080220FA01F140F298
:100980000400C2F200000068C2F200021160FFF72A
:10099000A1FE002001B0BDE8F083000040F2080095
:1009A00041F20401C2F20000C4F2020100680968C9
:1009B00042F29C12C1F30221C0F60002515CC84011
:1009C00070470000002804BF012070472DE9F04166
:1009D00082B00446007841F20006C007C4F2020665
:1009E0000CD0706800F00C00042840F08180306862
:1009F000800303D56068002800F04E8120788007CE
:100A00001BD5706810F00C0F09D0706800F00C0056
:100A1000082840F08B807068C00300F18780306840
:100A2000800703D52069012840F03681306861696C
:100A300020F0F80040EAC10030602078000713D4AD
:100A4000207840072CD4E569002D00F020817068E3
:100A500000F00C00082840F0AF80012D40F00C8120
:100A6000012002B0BDE8F081A069002800F08C8070
:100A70000020C4F242200121C0F88014FFF71EFDBF
:100A8000054600BF706A800700F1BA80FFF716FDC7
:100A9000401B0228F6D9032002B0BDE8F08100BF58
:100AA000F0695FEAC00808D4F06940F08050F06156
:100AB000F06900F080500090009847F20007C4F2FF
:100AC00000073868C0054DD4386840F4807038603D
:100AD000FFF7F4FC054600BF3868C00542D4FFF7B5
:100AE000EDFC401B6428F7D9032002B0BDE8F0817B
:100AF000706800F00C00082803D17068C0033FF54F
:100B000076AF6068002800F00981B0F5A02F00F0F2
:100B10001D81B0F5803F00F01D81306820F48030E9
:100B20003060306820F4802017E100BF2069002881
:100B300040F20000C4F2422000F08C8001210160EC
:100B4000FFF7BCFC054600BF306880073FF56EAF7D
:100B5000FFF7B4FC401B0228F6D9032002B0BDE821
:100B6000F08100BFE068002800F09A80052800F0BE
:100B7000B180012800F0B280306A20F001003062BC
:100B8000306A20F00400ACE00020C4F242200021D2
:100B9000C0F88014FFF792FC054600BF706A80071A
:100BA0007FF54EAFFFF78AFC401B0228F6D90320E1
:100BB00002B0BDE8F08100BF0027C4F24227002048
:100BC0003866FFF77BFC022D05460DD130688001A9
:100BD00040F1D680FFF772FC401B02284FF0030063
:100BE000F4D902B0BDE8F081306880014FD5FFF73D
:100BF00065FC401B02284FF00300F5D9F1E700BF68
:100C000040F20800C2F20000006844F6D351C1F27D
:100C10006201A0FB0101480A019000BF00BF0198DA
:100C2000411E002801913FF40BAF00BF0198411E07
:100C3000002801913FF404AF00BF0198411E002835
:100C400001913FF4FDAE00BF0198411E00280191C3
:100C5000E4D1F5E600210160FFF730FC054600BF56
:100C6000306880077FF5E9AEFFF728FC401B0228BB
:100C70004FF00300F4D9B4E77068216A00F48032C1
:100C80008A4209D1616A00F47010884204D10020C0
:100C900002B0BDE8F08100BF012002B0BDE8F081E4
:100CA000306A20F001003062306A20F004003062C7
:100CB000FFF704FC054641F2883700BF306A800721
:100CC00022D5FFF7FBFB401BB8424FF00300F5D9DC
:100CD00087E700BF306A40F004003062306A40F0BD
:100CE00001003062FFF7EAFB054641F2883700BF9A
:100CF000306A800708D4FFF7E1FB401BB842F7D900
:100D0000032002B0BDE8F081B8F1000F3FF59BAEC3
:100D1000F06920F08050F06195E600BF306820F463
:100D200080303060306820F480203060FFF7C6FBF0
:100D3000054600BF306880037FF560AEFFF7BEFB5D
:100D4000401B64284FF00300F4D94AE7306840F4B0
:100D500080203060306840F480303060FFF7AEFBB8
:100D6000054600BF306880033FF548AEFFF7A6FB9D
:100D7000401B6428F6D9032002B0BDE8F08100BF13
:100D8000206AB0F5803F05D17168A26821F4003176
:100D9000114371607168626A21F474111143084350
:100DA000706001203866FFF789FB044630688001D7
:100DB0003FF56DAFFFF782FB001B02284FF00300E9
:100DC000F4D90EE770B538B10446406A30B100205E
:100DD000206104F1140007E0012070BD6068B0F5E7
:100DE000827F03D004F11C00002101600026A6626E
:100DF00094F8510020B9204684F8506000F038F88B
:100E0000022084F8510094E8071001F4827103680D
:100E100002F4044223F040030360236911440CF4FC
:100E20000062114403F002026369114403F00102FD
:100E3000A369E569114403F40072114405F0380216
:100E4000256A114405F08002A56A114305F4005299
:100E500011430160042101EA13414160C16921F499
:100E60000061C1610120666584F85100304670BDA3
:100E700080B586B0014640F60000C4F20100096862
:100E800000F5205300229942049201D006B080BDA3
:100E900041F21801C4F202010A6842F480520A6069
:100EA0000A6802F480520192019A0A6842F0040230
:100EB0000A60096801F0040101910199A0210291E1
:100EC000022103910321059102A9FFF7E9F906B078
:100ED00080BD00002DE9F04182B0044690F850003A
:100EE000012803D1022002B0BDE8F08101201D4697
:100EF00016460F4684F85000FFF7E0FA94F85110B8
:100F000001290DD18046002F4FF0010018BF002E9F
:100F10000ED1002184F8501002B0BDE8F08100BF6E
:100F20000220002184F8501002B0BDE8F08100BF1B
:100F30000320002184F8510061652763A686E686B8
:100F4000A163A187E187A0682164B0F5004F206804
:100F5000616407D1016821F040010160016841F43A
:100F6000804101600168490603D4016841F04001F5
:100F700001606168731EE268B1FA81F1B3FA83F32C
:100F800049095B09B2F5006F41EA03013AD131B179
:100F900037F8021BC1602763E08E0138E086E08EDF
:100FA000002869D0681C0CD11BE000BF216B31F810
:100FB000022BC2602163E08E0138E086E08E0028BB
:100FC0005AD0206881688907F0D4FFF777FAA0EB40
:100FD0000800A842F2D338E0FFF770FAE08E00284C
:100FE0004AD0206881688907F6D5216B31F8022B39
:100FF000C2602163E08E0138E086E08E0028F0D1E7
:101000003AE000BF39B139780173206B01302063B9
:10101000E08E0138E086E08E70B3681C0BD11BE0D7
:10102000216B09780173206B01302063E08E013859
:10103000E086E08E00B3206881688907F0D4FFF76E
:101040003DFAA0EB0800A842F3D3032035E000BF2F
:10105000FFF734FAE08E78B1206881688907F7D508
:10106000216B09780173206B01302063E08E013819
:10107000E086E08E0028EFD1204680212A464346B4
:1010800000F042F828B1606D40F02000606520203B
:101090006065A06838B9002001902068C16801919E
:1010A000806801900198606D30B10120002184F8C2
:1010B000501002B0BDE8F0810020012184F85110E9
:1010C000002184F8501002B0BDE8F081411E0020DC
:1010D000B0EB116F1CBF012070474EF21002CEF230
:1010E000000251604EF62351CEF20001F0230B7046
:1010F0000721906011607047FEE70000FEE70000E6
:10110000FEE70000704700002DE9F04182B01E4666
:1011100090460D460446FFF7D1F9301A00EB080758
:10112000FFF7CCF940F20801C2F200010968C1F3EF
:10113000CB317943019121688A682A40AA4227D19C
:10114000064618F101001FD0FFF7B8F9801BB8421E
:1011500022D2019801990028A1F101010191216891
:10116000896808BF074601EA0500A842ECD00FE0F5
:1011700088682840A8420BD188682840A84207D137
:1011800088682840A84203D188682840A842EFD048
:10119000002002B0BDE8F081D4E900014268B1F559
:1011A000827F22F0E00242600AD1A168B1F5004FCF
:1011B00002D0B1F5806F03D1016821F040010160D8
:1011C000A16AB1F5005F07D1016821F40051016007
:1011D000016841F400510160012084F851000020B1
:1011E00084F85000032002B0BDE8F0817047000091
:1011F000FFF74EBA70470000FEE7000090B0FFF71F
:1012000055FA00240120CDE90B44CDE909440A90A8
:1012100010200B904FF4002002250F9006A8CDE976
:1012200007440695CDE90D54FFF7CCFB20B1EFF351
:10123000108072B6FEE700BF0F20CDE9010501A8BE
:101240000021CDE903440594FFF7C6FA20B1EFF37E
:10125000108072B6FEE700BF41F21800C4F202002F
:10126000016840F6004441F0200101600168C4F2C9
:10127000010401F02001069106990168002241F065
:10128000040101600168012601F00401069106993C
:101290000168002541F0080101600068012100F0AB
:1012A0000800069006982046FFF702F902200990F0
:1012B00006A92046CDE906660895FEF7F1FF40F243
:1012C0007400A4F53841C2F2000048F2A0624FF465
:1012D0008043C0F2010280E82600C0E90353C0E960
:1012E0000555C0E90755FFF7EFF828B1EFF3108077
:1012F00072B600BFFEE700BF40F2C80004F510510F
:10130000C2F200004FF482724FF4007380E82600AE
:101310000A21C0E90355C0E90553C561C0E9085574
:10132000C0E90A51FFF74EFD20B1EFF3108072B60D
:10133000FEE700BF072000F06DF900F039F94FF229
:10134000C354CCF2480400BF00F030F80820214616
:10135000022200F063FA04200C21002200F0CEF9F2
:1013600003200B21002200F0C9F902200D210022E8
:1013700000F0C4F901200E21002200F0BFF940F274
:10138000DC50FEF779FF00F011F8082042F23D2111
:10139000042200F053FC032040F2411100F00AFB4C
:1013A00040F2DC50FEF768FFCEE700002DE9F04187
:1013B00082B040F27000C2F20000067840F60044AD
:1013C0000120C4F20104002E18BF0F268DF807007B
:1013D0002046012100228DF80660FFF769F840F2EF
:1013E000C805C2F200050DF1070828464146012252
:1013F0004FF0FF33FFF76EFD0DF106072846394623
:1014000001224FF0FF33FFF765FD20460121012245
:10141000FFF74EF802208DF8070020460121002238
:101420008DF80660FFF744F82846414601224FF048
:10143000FF33FFF74FFD2846394601224FF0FF33B7
:10144000FFF748FD204601210122FFF731F8032074
:101450008DF807002046012100228DF80660FFF775
:1014600027F82846414601224FF0FF33FFF732FDAF
:101470002846394601224FF0FF33FFF72BFD204667
:1014800001210122FFF714F804208DF807002046FF
:10149000012100228DF80660FFF70AF82846414630
:1014A00001224FF0FF33FFF715FD28463946012290
:1014B0004FF0FF33FFF70EFD204601210122FEF71A
:1014C000F7FF05208DF807002046012100228DF846
:1014D0000660FEF7EDFF2846414601224FF0FF333C
:1014E000FFF7F8FC2846394601224FF0FF33FFF79B
:1014F000F1FC204601210122FEF7DAFF06208DF8DB
:1015000007002046012100228DF80660FEF7D0FF7B
:101510002846414601224FF0FF33FFF7DBFC284607
:10152000394601224FF0FF33FFF7D4FC204601215A
:101530000122FEF7BDFF07208DF80700204601219C
:1015400000228DF80660FEF7B3FF284641460122CF
:101550004FF0FF33FFF7BEFC2846394601224FF01B
:10156000FF33FFF7B7FC204601210122FEF7A0FF61
:1015700008208DF807002046012100228DF8066022
:10158000FEF796FF2846414601224FF0FF33FFF752
:10159000A1FC2846394601224FF0FF33FFF79AFCA1
:1015A000204601210122FEF783FF02B0BDE8F08151
:1015B000B0B582B040F27000C2F2000001210170AB
:1015C000092040F600448DF80700FF20C4F2010412
:1015D0008DF8060020460022FEF76AFF40F2C8059B
:1015E000C2F200050DF10701284601224FF0FF333A
:1015F000FFF770FC0DF10601284601224FF0FF3382
:10160000FFF768FC204601210122FEF751FF02B0DE
:10161000B0BD000070B582B0054640F600440C2015
:10162000C4F201048DF8030001208DF80200204669
:1016300001210022FEF73CFF40F2C806C2F200067C
:101640000DF10301304601224FF0FF33FFF742FC5A
:101650000DF10201304601224FF0FF33FFF73AFC53
:10166000204601210122FEF723FF0B208DF8050003
:1016700007208DF80400204601210022FEF718FF04
:101680000DF10501304601224FF0FF33FFF722FC38
:1016900001A9304601224FF0FF33FFF71BFC204623
:1016A00001210122FEF704FF0F2D22D80A208DF818
:1016B00007002046012100228DF80650FEF7F8FEB3
:1016C00040F2C805C2F200050DF1070128460122CB
:1016D0004FF0FF33FFF7FEFB0DF106012846012214
:1016E0004FF0FF33FFF7F6FB204601210122FEF702
:1016F000DFFEFFF75BFE02B070BD0000082888BF68
:101700007047B0B582B040F27003C2F200031B789C
:1017100040F60044C4F20104D2B1ABB341F0800101
:101720008DF803008DF80210204601210022FEF7FB
:10173000BFFE40F2C805C2F200050DF103012846C4
:1017400001224FF0FF33FFF7C5FB0DF1020156E018
:10175000C3B301F07F018DF807008DF80610204615
:1017600001210022FEF7A4FE40F2C805C2F20005E6
:101770000DF10701284601224FF0FF33FFF7AAFBC6
:101780000DF106013BE000BF42F2B612C0F60002C6
:10179000515C8DF8010041F080018DF80010204669
:1017A00001210022FEF784FE40F2C805C2F20005C6
:1017B0000DF10101284601224FF0FF33FFF78AFBAC
:1017C00069461CE042F2B612C0F60002515C8DF888
:1017D000050001F07F018DF8041020460121002250
:1017E000FEF766FE40F2C805C2F200050DF10501E4
:1017F000284601224FF0FF33FFF76CFB01A9284672
:1018000001224FF0FF33FFF765FB20460121012243
:10181000FEF74EFE02B0BDE8B04070472DE9F04142
:1018200082B01546074640F600480920C4F2010878
:10183000042A28BF04258DF80300FF200E468DF8EA
:101840000200404601210022FEF732FE40F2C804A9
:10185000C2F200040DF10301204601224FF0FF33D4
:10186000FFF738FB0DF10201204601224FF0FF3354
:10187000FFF730FB404601210122FEF719FE3046FA
:10188000002100F0BEFA40BB27B30A208DF8040007
:101890004046012100228DF80570FEF709FE40F256
:1018A000C804C2F200040DF10501204601224FF0E8
:1018B000FF33FFF70FFB01A9204601224FF0FF3352
:1018C000FFF708FB404601210122FEF7F1FD013F31
:1018D00001E000BF002786F00046304600F0E6FA3F
:1018E0000446F8B2214600F065F8074695B346F283
:1018F0006760C6F2666084FB00018A1002EBD1715A
:1019000001EB8101781CA4EB4101C9B2C0B20122F4
:10191000FFF7F4FE012D0BD0022D0DD0032D07BFD4
:101920000021C4F27A4144F20001C4F21C6106E0D5
:101930000021C4F2201102E00021C4F2C821304687
:1019400000F058FB00F0CEFA014638462A4600F077
:1019500075F9074640F27000C2F2000000780921D4
:1019600000F0010040428DF807108DF80600404657
:1019700001210022FEF79CFD40F2C804C2F20004DF
:101980000DF10701204601224FF0FF33FFF7A2FAC5
:101990000DF10601204601224FF0FF33FFF79AFABE
:1019A000404601210122FEF783FD384602B0BDE822
:1019B000F08100002DE9F04F83B0064640F6004765
:1019C0000920C4F201078DF80300FF200D468DF8B1
:1019D0000200384601210022FEF76AFD40F2C804E9
:1019E000C2F200040DF10301204601224FF0FF3343
:1019F000FFF770FA0DF10201204601224FF0FF338C
:101A0000FFF768FA384601210122FEF751FDB5F1D2
:101A1000FF3F51DD4FF001080A2DC0F0888064219E
:101A20004FF47A7242F2107308EB8800470095FB7E
:101A3000F7F00A2870DB08FB01F795FBF7F00A289E
:101A4000C0F2F68008FB02F795FBF7F00A2863DB8B
:101A500008FB03F895FBF8F00928E5DC310669D0AE
:101A600040F60047C4F201078DF806003846012110
:101A700000228DF80760FEF71BFD40F2C804C2F299
:101A800000040DF10701204601224FF0FF33FFF75C
:101A900021FA0DF10601204601224FF0FF33FFF736
:101AA00019FA384601210122FEF702FD741EB8F131
:101AB0000A0F43D288E000BF96B340F600470A20E1
:101AC000C4F201078DF804003846012100228DF888
:101AD0000560FEF7EDFC40F2C804C2F200040DF10F
:101AE0000501204601224FF0FF33FFF7F3F901A96A
:101AF000204601224FF0FF33FFF7ECF93846012171
:101B00000122FEF7D5FC013E6D424FF001080A2D7F
:101B1000BFF485AF0BE000BFB8463106A0D109E0A5
:101B200000266D424FF001080A2DBFF478AF284619
:101B3000310695D10024B8F10A0F45D34CF6CD4BB0
:101B400040F2C80640F60049CCF6CC4BC2F2000683
:101B50000DF1080AC4F2010905E000BF0024B8F144
:101B6000630FB84630D9A8FB0B0120064FEAD10716
:101B7000F4D007EB8700400095FBF0F1002201FB59
:101B80001050012190FBF7F08DF809408DF8080006
:101B90004846FEF78DFC30460DF1090101224FF059
:101BA000FF33FFF797F93046514601224FF0FF33DC
:101BB000FFF790F9484601210122FEF779FC013C2C
:101BC000B8F1630FB846CED840F27000C2F2000000
:101BD000007840F6004600F0010040420921C4F2BE
:101BE00001068DF80B108DF80A0030460121002205
:101BF000FEF75EFC40F2C805C2F200050DF10B01D4
:101C0000284601224FF0FF33FFF764F90DF10A0176
:101C1000284601224FF0FF33FFF75CF930460121DF
:101C20000122FEF745FCE0B203B0BDE8F08F00BF33
:101C3000B84631067FF414AF7CE700002DE9F04F81
:101C400083B0044640F600480920C4F201088DF82C
:101C50000700FF20154689468DF806004046012101
:101C60000022FEF725FC40F2C806C2F200060DF184
:101C70000701304601224FF0FF33FFF72BF90DF13A
:101C80000601304601224FF0FF33FFF723F94046AB
:101C900001210122FEF70CFC002D6ED0691E080602
:101CA00008D0A81EC0B2032801F0030004D20A2104
:101CB000A8B91EE001251EE001F0FC01002201256B
:101CC00042F210730432D6B22F468E4203FB05F562
:101CD000F8D148F2A061C0F20101794348B101286E
:101CE00006D0642301EB81025943022808BF51004A
:101CF0000D46002D41D04CF6CD4A40F2C807CCF637
:101D0000CC4AC2F200070DF1090B02AE2CE000BF75
:101D1000B9FBF5F08DF80940A0FB0A12D10801EBE0
:101D20008101A0EB41008DF808004046012100220E
:101D3000FEF7BEFB3846594601224FF0FF33FFF74E
:101D4000C9F83846314601224FF0FF33FFF7C2F899
:101D5000404601210122FEF7ABFB013CA5FB0A0135
:101D6000092D4FEAD10508D92006D1D10024A5FBC1
:101D70000A01092D4FEAD105F6D840F27000C2F2EF
:101D800000000078092100F0010040428DF80B109E
:101D90008DF80A00404601210022FEF789FB40F23F
:101DA000C805C2F200050DF10B01284601224FF0D3
:101DB000FF33FFF78FF80DF10A01284601224FF09B
:101DC000FF33FFF787F8404601210122FEF770FB41
:101DD000E0B203B0BDE8F08F10B500F033F80CBFEF
:101DE0000120002010BD10B500F02CF814BF012018
:101DF000002010BD10B500F095F88CBF0120002028
:101E000010BD10B500F08EF82CBF0120002010BDD1
:101E100010B500F0BBF894BF0120002010BD10B534
:101E200000F0B4F834BF0120002010BD401058BFAE
:101E3000C0F14040491058BFC1F140418142EFF329
:101E40000080704750EA010C00F113801CF5000F70
:101E500058BFBCF5000F01D48842704707D710F572
:101E6000000F58BF11F5000F15D488427047894202
:101E700070471CF5000F04D5BCF5000FF7D5814263
:101E800070474FF0807C1CEB400F38BF1CEB410FBC
:101E900001D28142704710B500F02DF9922449001B
:101EA0004FF000504FF08051FFF7C0BF41000B0EC4
:101EB000D3F19E0208D950F400034FEA032323FA1A
:101EC00002F048BF4042704710B500F014F900BF5F
:101ED00049922480002070476FF0004282EA20007F
:101EE00070470000C10DD1F19E0206DB4FEA0023CE
:101EF00043F0004323FA02F07047004207D54FEA4F
:101F00004001B1F1FE4F02D24FF00000704710B512
:101F100000F0F1F849922480002070476FEA200019
:101F20007047000050EA010C00F113801CF5000F0F
:101F300058BFBCF5000F01D48842704707D710F591
:101F4000000F58BF11F5000F15D488427047894221
:101F500070471CF5000F04D5BCF5000FF7D5814282
:101F600070474FF0807C1CEB400F38BF1CEB410FDB
:101F700001D28142704710B500F0BDF892244900AB
:101F80004FF080504FF00051FFF750BF50EA010C66
:101F900000F113801CF5000F58BFBCF5000F01D4F1
:101FA0008842704707D710F5000F58BF11F5000F92
:101FB00015D488427047894270471CF5000F04D53C
:101FC000BCF5000FF7D5814270474FF0807C1CEBC9
:101FD000400F38BF1CEB410F01D28142704710B552
:101FE00000F089F8922449004FF000504FF08051E2
:101FF000FFF71CBF4FF47F0C1CEAD0121EBF1CEA77
:10200000D11392EA0C0F93EA0C0F00F0478090EA8C
:10201000010F48BF42F480724FF0004C4CEA0020A0
:102020004CEA012102EB0302A0FB0113A2F500021E
:10203000002918BF43F001035B0028BF4FEA3303B8
:1020400042EB22425FEA132C4CEBC2502EBFBCEB9A
:10205000436FB2F57C0F70474FEA036CBCF1004F41
:1020600008BF20F00100B2F57C0F38BF70470BD5D8
:1020700082F0FF0212F5803FC8BF704700F1C040F8
:10208000D8BF00F00040704700F5000C5FEA4C0C30
:1020900048BF7047B0F1C04000F073B80CEAD113EC
:1020A00090EA010F48BF42F48072624538BF634531
:1020B00004D280EA010000F00040704710B500F043
:1020C0001AF800BF8900013E00F007B800F009B817
:1020D0005FEA410C5FEA1C6C08D080EA010000F066
:1020E00050B85FEA400C5FEA1C6CF6D14FF000403C
:1020F000A0F5800070470EF1020E2EF0030E5EF880
:10210000044B244204D44FEA4102B2F17F4F11D86C
:102110004FEA4003B3F17F4F0CD80ED14FEAD07C89
:102120000CEB4C0C0CF1020CB2F17F4F08BF4CEBE6
:10213000D17C04E04FF0080C01E04FEAD17C0CEBBD
:102140004C0324FA03F404F00704B4F1040C06D29F
:102150000EEB840CBDE810404CF0010C6047DFE84A
:102160000CF0070802024FF00040A0F5800010BDFF
:102170000846420018BFD2F1807288BF00F00040CC
:1021800010BDFF2141EAD050C0057047000000009B
:102190000000000001020304060708090000000017
:1021A00001020304010202030405060708090A0BE1
:1021B0000C0D0E0F10107E306D79335B5F707F7BDE
:1021C000014F370E67000000E821000800000020E2
:1021D0001000000050010008F82100081000002045
:1021E0001807000070010008010000001000000046
:0821F0000024F40000000000CF
:04000005080000ED02
:00000001FF
